{
  "contractName": "BasicContract",
  "abi": [
    {
      "anonymous": false,
      "inputs": [
        {
          "indexed": false,
          "internalType": "uint256",
          "name": "novoNumero",
          "type": "uint256"
        }
      ],
      "name": "AlterNumber",
      "type": "event"
    },
    {
      "inputs": [
        {
          "internalType": "uint256",
          "name": "_numero",
          "type": "uint256"
        }
      ],
      "name": "defineNumber",
      "outputs": [],
      "stateMutability": "nonpayable",
      "type": "function"
    },
    {
      "inputs": [],
      "name": "getNumber",
      "outputs": [
        {
          "internalType": "uint256",
          "name": "",
          "type": "uint256"
        }
      ],
      "stateMutability": "view",
      "type": "function"
    }
  ],
  "bytecode": "0x608060405234801561001057600080fd5b50610187806100206000396000f3fe608060405234801561001057600080fd5b50600436106100365760003560e01c8063f2c9ecd81461003b578063fd55acad14610059575b600080fd5b610043610075565b6040516100509190610110565b60405180910390f35b610073600480360381019061006e91906100d4565b61007e565b005b60008054905090565b806000819055507f6ccd1b34aa52c59b30ae5cb7edea7d7fc3b282e0f817667ca82fb9df7d68865c816040516100b49190610110565b60405180910390a150565b6000813590506100ce8161013a565b92915050565b6000602082840312156100ea576100e9610135565b5b60006100f8848285016100bf565b91505092915050565b61010a8161012b565b82525050565b60006020820190506101256000830184610101565b92915050565b6000819050919050565b600080fd5b6101438161012b565b811461014e57600080fd5b5056fea264697066735822122000daab2bb6c40434865682e44992b455a7c286d49095e6156bd5e139b750482564736f6c63430008060033",
  "immutableReferences": {},
  "source": "// SPDX-License-Identifier: MIT\npragma solidity ^0.8.6;\n\ncontract BasicContract {\n    uint private number;\n\n    event AlterNumber(uint novoNumero);\n\n    function defineNumber(uint _numero) public {\n        number = _numero;\n        emit AlterNumber(_numero);\n    }\n\n    function getNumber () public view returns(uint) {\n        return number;\n    }\n}",
  "sourcePath": "/home/vitordeveth/solidityStudy/contracts/MyContract.sol",
  "compiler": {
    "name": "solc",
    "version": "0.8.6+commit.11564f7e.Emscripten.clang"
  },
  "schemaVersion": "3.4.14",
  "updatedAt": "2023-07-24T09:09:04.328Z",
  "devdoc": {
    "kind": "dev",
    "methods": {},
    "version": 1
  },
  "userdoc": {
    "kind": "user",
    "methods": {},
    "version": 1
  }
}