{
  "contractName": "Test",
  "abi": [
    {
      "inputs": [],
      "name": "data",
      "outputs": [
        {
          "internalType": "bytes32",
          "name": "",
          "type": "bytes32"
        }
      ],
      "stateMutability": "view",
      "type": "function"
    },
    {
      "inputs": [],
      "name": "isReady",
      "outputs": [
        {
          "internalType": "bool",
          "name": "",
          "type": "bool"
        }
      ],
      "stateMutability": "view",
      "type": "function"
    },
    {
      "inputs": [],
      "name": "number",
      "outputs": [
        {
          "internalType": "uint256",
          "name": "",
          "type": "uint256"
        }
      ],
      "stateMutability": "view",
      "type": "function"
    },
    {
      "inputs": [],
      "name": "user",
      "outputs": [
        {
          "internalType": "address",
          "name": "",
          "type": "address"
        }
      ],
      "stateMutability": "view",
      "type": "function"
    },
    {
      "inputs": [
        {
          "internalType": "bool",
          "name": "_isReady",
          "type": "bool"
        },
        {
          "internalType": "uint256",
          "name": "_number",
          "type": "uint256"
        },
        {
          "internalType": "address",
          "name": "_user",
          "type": "address"
        },
        {
          "internalType": "bytes32",
          "name": "_data",
          "type": "bytes32"
        }
      ],
      "name": "set",
      "outputs": [],
      "stateMutability": "nonpayable",
      "type": "function"
    }
  ],
  "bytecode": "0x608060405234801561001057600080fd5b506103ed806100206000396000f3fe608060405234801561001057600080fd5b50600436106100575760003560e01c806333c7fde91461005c5780634f8632ba1461007857806373d4a13a146100965780638381f58a146100b4578063a094a031146100d2575b600080fd5b610076600480360381019061007191906101f5565b6100f0565b005b61008061015e565b60405161008d9190610298565b60405180910390f35b61009e610184565b6040516100ab91906102ce565b60405180910390f35b6100bc61018a565b6040516100c991906102e9565b60405180910390f35b6100da610190565b6040516100e791906102b3565b60405180910390f35b836000806101000a81548160ff0219169083151502179055508260018190555081600260006101000a81548173ffffffffffffffffffffffffffffffffffffffff021916908373ffffffffffffffffffffffffffffffffffffffff1602179055508060038190555050505050565b600260009054906101000a900473ffffffffffffffffffffffffffffffffffffffff1681565b60035481565b60015481565b60008054906101000a900460ff1681565b6000813590506101b08161035b565b92915050565b6000813590506101c581610372565b92915050565b6000813590506101da81610389565b92915050565b6000813590506101ef816103a0565b92915050565b6000806000806080858703121561020f5761020e610356565b5b600061021d878288016101b6565b945050602061022e878288016101e0565b935050604061023f878288016101a1565b9250506060610250878288016101cb565b91505092959194509250565b61026581610304565b82525050565b61027481610316565b82525050565b61028381610322565b82525050565b6102928161034c565b82525050565b60006020820190506102ad600083018461025c565b92915050565b60006020820190506102c8600083018461026b565b92915050565b60006020820190506102e3600083018461027a565b92915050565b60006020820190506102fe6000830184610289565b92915050565b600061030f8261032c565b9050919050565b60008115159050919050565b6000819050919050565b600073ffffffffffffffffffffffffffffffffffffffff82169050919050565b6000819050919050565b600080fd5b61036481610304565b811461036f57600080fd5b50565b61037b81610316565b811461038657600080fd5b50565b61039281610322565b811461039d57600080fd5b50565b6103a98161034c565b81146103b457600080fd5b5056fea26469706673582212200ab336d8678ab8fa7ca0652083b77cbe6d5770561af55fb240e20140b03d6cb964736f6c63430008060033",
  "immutableReferences": {},
  "source": "// SPDX-License-Identifier: MIT\npragma solidity ^0.8.4;\n\ncontract Test {\n    bool public isReady;\n    uint public number;\n    address public user;\n    bytes32 public data;\n\n    function set(bool _isReady, uint _number, address _user, bytes32 _data) public {\n        isReady = _isReady;\n        number = _number;\n        user = _user;\n        data = _data;\n    }\n}",
  "sourcePath": "/home/vitordeveth/solidityStudy/contracts/studyContract.sol",
  "compiler": {
    "name": "solc",
    "version": "0.8.6+commit.11564f7e.Emscripten.clang"
  },
  "schemaVersion": "3.4.14",
  "updatedAt": "2023-07-24T09:07:49.239Z",
  "devdoc": {
    "kind": "dev",
    "methods": {},
    "version": 1
  },
  "userdoc": {
    "kind": "user",
    "methods": {},
    "version": 1
  }
}